:100000000C9434000C9451000C9451000C94510049
:100010000C9451000C9451000C9451000C9451001C
:100020000C9451000C9451000C9451000C947C00E1
:100030000C9451000C9451000C9451000C945100FC
:100040000C9451000C9451000C9451000C945100EC
:100050000C9451000C9451000C9451000C945100DC
:100060000C9451000C94510011241FBECFEFD8E026
:10007000DEBFCDBF11E0A0E0B1E0E0E7F1E002C0FB
:1000800005900D92A230B107D9F721E0A2E0B1E0CE
:1000900001C01D92A330B207E1F70E94AE000C949C
:1000A000B6000C94000014BC15BC84B5836084BDFC
:1000B00084B5806B84BD85B5836085BD17BC18BCD5
:1000C000089510928000E1E8F0E01082109285001F
:1000D0001092840080818860808380818360808327
:1000E00083EC99E09093890080938800EFE6F0E03C
:1000F00080818260808308951F920F920FB60F92C5
:1001000011248F9380910001882371F08091020166
:100110008F5F80930201809102018F3F99F4809359
:100120000201109200010EC0809102018150809363
:10013000020180910201811105C01092020181E04B
:10014000809300018091020187BD8091020188BDEA
:100150008F910F900FBE0F901F9018958FEF8AB957
:1001600078940E9453000E946100FFCFF894FFCF63
:0201700001008C
:00000001FF
