:100000000C9434000C9451000C9451000C94510049
:100010000C9451000C9451000C9451000C948A00E3
:100020000C9451000C9451000C9451000C947100EC
:100030000C947F000C9451000C9451000C945100CE
:100040000C9451000C9451000C9451000C945100EC
:100050000C9451000C9451000C9451000C945100DC
:100060000C9451000C94510011241FBECFEFD8E026
:10007000DEBFCDBF11E0A0E0B1E0E4E8F1E002C0F6
:1000800005900D92A230B107D9F721E0A2E0B1E0CE
:1000900001C01D92A230B207E1F70E94B6000C9495
:1000A000C0000C94000010928000E1E8F0E01082A3
:1000B0001092850010928400808184608083EFE636
:1000C000F0E080818660808387EA91E690938900E2
:1000D0008093880083E294EF90938B0080938A0052
:1000E00008951F920F920FB60F9211248F938FEFE6
:1000F0008BB98F910F900FBE0F901F9018951F9284
:100100000F920FB60F9211241BB80F900FBE0F90D5
:100110001F9018951F920F920FB60F9211242F93D4
:100120003F938F939F938BB18F708BB92091000178
:1001300081E0820F809300013BB181E090E002C03A
:10014000880F991F2A95E2F7832B8BB980910001C4
:10015000883019F484E0809300019F918F913F9142
:100160002F910F900FBE0F901F9018958AB18FEFAF
:100170008AB984B18C7F84B978940E945300FFCFF0
:04018000F894FFCF21
:02018400040075
:00000001FF
