S00C00006C6162312E73726563B8
S11300000C9434000C943E000C943E000C943E007E
S11300100C943E000C943E000C943E000C943E0064
S11300200C943E000C943E000C943E000C943E0054
S11300300C943E000C943E000C943E000C943E0044
S11300400C943E000C943E000C943E000C943E0034
S11300500C943E000C943E000C943E000C943E0024
S11300600C943E000C943E0011241FBECFEFD8E048
S1130070DEBFCDBF0E94D2000C94F7000C940000A8
S11300808FEF8AB984B18C7F84B985B1836085B9D7
S113009008951816CCF420E030E061E070E0AB0184
S11300A0022E02C0440F551F0A94E2F74BB94FEFDA
S11300B053EC99E0415050409040E1F700C00000FB
S11300C02F5F3F4F28175CF308958150AAF041E059
S11300D050E09A01082E02C0220F331F0A94E2F75F
S11300E02BB92FEF33EC99E0215030409040E1F7E9
S11300F000C0000081506AF708953FEF380F932F36
S1130100282F882314F421E0280F259512162CF5A6
S113011040E050E0E1E0F0E0DF01042E02C0AA0F6D
S1130120BB1F0A94E2F7BF01092E02C0660F771FB6
S11301300A94E2F76A0F6BB96FEF73ECA9E06150B0
S11301407040A040E1F700C0000091504F5F5F4F46
S1130150421714F3932F921B01C020E02F5F91509C
S11301602817FCF461E070E0FB01022E02C0EE0FE0
S1130170FF1F0A94E2F7AB01092E02C0440F551F7A
S11301800A94E2F74E0F4BB93FEF43EC59E031507C
S113019040405040E1F700C000002F5F9150281705
S11301A01CF308950E944000CFEFCBB92FEF85EAEE
S11301B09EE0215080409040E1F700C00000189973
S11301C006C0199904C088E00E947D00EECF1899FA
S11301D006C0199B04C088E00E944900E6CF189B22
S11301E0E4CF1999E2CF88E00E946500DECFF8944D
S10501F0FFCF3B
S9030000FC
