S00C00006C6162342E73726563B5
S11300000C9434000C9446000C9446000C94460066
S11300100C9446000C9446000C9446000C94460044
S11300200C9446000C9446000C9446000C94460034
S11300300C9446000C9446000C9446000C94460024
S11300400C9446000C9446000C9446000C94460014
S11300500C9446000C9474000C9446000C944600D6
S11300600C9446000C94460011241FBECFEFD8E038
S1130070DEBFCDBF21E0A0E0B1E001C01D92A530FC
S1130080B207E1F70E94B6000C9420010C94000022
S113009087B18C7F87B988B18C7F88B980E48093DD
S11300A07C008FEC80937A007894089584B1866004
S11300B084B9E0E8F0E08081806C80838081806294
S11300C08083A1E8B0E08C918C93808183608083ED
S11300D08C9183608C931092890010928800109206
S11300E08B0010928A0008951F920F920FB60F9200
S11300F011248F939F93EF93FF93809100018111BB
S113010012C08091780090917900909304018093BB
S11301100301ECE7F0E08081807F8160808381E0EF
S1130120809300010FC080917800909179009093A2
S1130130020180930101ECE7F0E08081807F8083FD
S113014010920001EAE7F0E0808180648083FF91EF
S1130150EF919F918F910F900FBE0F901F90189564
S11301608FEF8AB91BB884B985B908950E94B0008D
S11301700E9456000E9448000F2E88248A94F3E0BF
S11301809F2EA12CB12CF02DEE24E394F12C08E841
S113019010E0CAE8D0E04090030150900401612CC3
S11301A0712CD301C201880F991FAA1FBB1F880F8E
S11301B0991FAA1FBB1F880F991FAA1FBB1FBC0131
S11301C0CD016419750986099709A50194010E9456
S11301D0FE00C70102C0880F991F2A95E2F78BB968
S11301E08091010190910201F801918380838091B3
S11301F001019091020199838883CDCFA1E21A2E47
S1130200AA1BBB1BFD010DC0AA1FBB1FEE1FFF1FB6
S1130210A217B307E407F50720F0A21BB30BE40B06
S1130220F50B661F771F881F991F1A9469F760954D
S11302307095809590959B01AC01BD01CF01089507
S1070240F894FFCF5C
S9030000FC
